:020000040800F2
:10000000FCFF00200D280000052800000528000046
:10001000052800000528000005280000052800002C
:10002000052800000528000005280000052800001C
:10003000052800000528000005280000052800000C
:1000400005280000052800000528000005280000FC
:1000500005280000052800000528000005280000EC
:1000600005280000052800000528000005280000DC
:1000700005280000052800000528000005280000CC
:1000800005280000052800000528000005280000BC
:1000900005280000052800000528000005280000AC
:1000A000052800000528000005280000052800009C
:1000B000052800000528000005280000052800008C
:1000C000052800000528000005280000052800007C
:1000D000052800000528000005280000052800006C
:1000E000052800000528000005280000052800005C
:1000F000052800000528000005280000052800004C
:10010000052800000528000005280000052800003B
:10011000052800000528000005280000052800002B
:10012000052800000528000005280000052800001B
:10013000052800000528000005280000052800000B
:1001400005280000052800000528000005280000FB
:1001500081B000F218010A68C2F3400181F0010188
:10016000C9B2C8B201B0704781B000F214010A6888
:1001700000F218010968090442EA0101084601B0C9
:100180007047FFFF83B0CDF800E000F0FF031A09CD
:10019000104603F00F02134614E0194A02921FE0C2
:1001A000184A02921CE0184A029219E0174A029279
:1001B00016E0174A029213E0164A029210E0164A1D
:1001C00002920DE00028E8D00128E9D00228EAD008
:1001D0000328EBD00428ECD00528EDD00628EED07B
:1001E000012212B29A40ADF8042002980A46BDF8E6
:1001F000041000F0EFFEDDF800E003B0704700BF30
:1002000000080140000C01400010014000140140B2
:1002100000180140001C0140002001400148006816
:10022000704700BF4C02002081B0CDF800E00B46C3
:10023000FFF79AFF00EA03029A4240F2000200D15F
:100240000122D0B2DDF800E001B0704781B0CDF8F6
:1002500000E04FF000021949884207D118490B68A5
:1002600018490A6818490A601C460BE01749884279
:1002700007D117490B6817490A6813490A601C46D9
:1002800000E0144614490C6003461846FFF760FF6F
:1002900070B91149096851B12CB905200A4C24687C
:1002A000A047002005E0611E08460446FFE7ECE792
:1002B0000120DDF800E001B0704700BF00540040AD
:1002C000FC01002054020020500200200058004091
:1002D00000020020580200200402002082B0CDF865
:1002E00000E0034619460191FFF798FF40F2E8311C
:1002F00000FB01F201990A601F490978C1F303115B
:10030000C8B21E4909180878C0B21A1D1968C14040
:10031000116019490988C1F3022188B217490918E7
:100320000878C0B203F20802191D0968C1401160C3
:1003300011490988C1F3C22188B210490918087807
:10034000C0B203F20C02191D0968C14011600A49CC
:100350000988C1F3813188B2094909180978C8B2FE
:1003600003F2100203F20C010968B1FBF0F1116015
:10037000DDF800E002B07047041002407C2D000060
:100380003223000081B00168C1F3801001B07047D2
:1003900082B0CDF800E0029E4FF00005564CA0421E
:1003A00006D1564C2768564C2568564C25600AE005
:1003B000554CA04206D1554C2768554C2568514CE8
:1003C000256000E02F46534C276000F210054C00DA
:1003D000A4B22C60B9460746904635461E464E49A3
:1003E0003846FFF721FF88B94A4C24686CB1B9F14F
:1003F000000F06D10420434C2468A0474FF6FF703D
:1004000076E0A9F101008146FFE7E8E700200197C7
:1004100029463746019E7C1EA04226D206F21005D0
:1004200008EB000424782C603A4CD4F80090824603
:100430000D463A493046FFF7F7FE88B9354C246837
:100440006CB1B9F1000F06D104202E4C2468A047EE
:100450004FF6FF704CE0A9F101008146FFE7E8E7A5
:100460000AF1010420462946D5E706F2100508EBFB
:10047000000424782C60274C27680D462849304614
:10048000FFF7D2FE70B9234C246854B137B9042069
:100490001C4C2468A0474FF6FF7029E0781E0746E1
:1004A000FFE7EBE7012D05D10125346865F3492409
:1004B00034601CE00125346865F308243460154C71
:1004C0002768354617492846FFF7AEFE78B9114C24
:1004D00024685CB137B904200A4C2468A0474FF661
:1004E000FF7005E07C1E20460746FFE7EAE7002094
:1004F000DDF800E002B0704700540040FC0100202D
:100500005402002050020020005800400002002049
:10051000580200200402002082000700800007002B
:10052000840007000100030081B00168C1F340109E
:1005300001B0704781B0CDF800E0012252B23E49CF
:100540000A6000F268010B686FF0006103EA0102C3
:10055000144603F00061C90E0B4602F00041B1F1F0
:10056000004F02D135490A6801E035490A6804F4B0
:100570007021090C0E464FF6FF7104EA01010D4689
:1005800004F44011B1F5401F0DD16FF0706102EA23
:1005900001010E462A490A686FF070610A40284935
:1005A0000A60324616E004F48011B1F5801F09D1CB
:1005B0004FF00301B140C94302EA010141F070610B
:1005C0000A4607E0610D090105FA01F1C9430A4035
:1005D00042F070622BB1610D090105FA01F10A4385
:1005E000FFE704F00041B1F1004F02D113490A6066
:1005F00001E013490A6040F2000A81464FEA8A018D
:1006000009EB01010968B1F1FF3F10D009F1340194
:100610004FEA8A03C91809680A4609EB0301096809
:1006200008461146FFF7AEFD0AF1010AE6E7DDF8DC
:1006300000E001B0704700BF000342421C000140CF
:100640000400014081B00268C2F3401101B9FAE729
:10065000011D096888B201B07047FFFF82B0CDF874
:1006600000E0CFB201469846029B4FF000064FF0E3
:100670000005C44CA14207D1C34CD4F80090C34C30
:100680002568C34C25600BE0C24CA14207D1C24C87
:100690002068C24C2568BE4C2560814600E0A94612
:1006A000BF4CC4F80090F4E101F210057C00A4B244
:1006B00044F00104A4B22C60019616464F46019AFC
:1006C00001F214042568C5F3400464B9B44C2468ED
:1006D00044B127B90320AE4C2468A047E2E1781E5C
:1006E0000746FFE7ECE700250C6865F38A240C60F9
:1006F00001F21404206800BF01F2180424682404E5
:1007000040EA04042046012B05D101250C6865F35D
:1007100049240C6004E001250C6865F308240C6092
:100720009F4C25689146984637460E469D4930466F
:10073000FFF77AFD68B99A4C24684CB125B90320BB
:10074000934C2468A047ADE16C1E20460546FFE7A8
:10075000ECE707EB090506F2100424682C70B8F1E9
:10076000010F13D18E4C216830460568C5F3402433
:100770005CB98B4C24683CB121B90320844C2468BB
:10078000A0478FE1491EFFE7EFE712E0844C2168A4
:1007900030460568C5F300245CB9814C24683CB13F
:1007A00021B903207A4C2468A0477BE1491EFFE76A
:1007B000EFE777E101250C6865F38A240C600125D9
:1007C0000C6865F3CB240C6001F210057C00A4B228
:1007D00044F00104A4B22C604F4601F214042568D1
:1007E000C5F3400464B96E4C246844B127B90320B2
:1007F000674C2468A04755E1781E0746FFE7ECE701
:1008000001F21404206800BF01F2180424682404D3
:10081000204300250C6865F38A240C60604C27682F
:1008200001F214042568C5F3800464B95C4C2468A3
:1008300044B127B90320564C2468A04732E1781E02
:100840000746FFE7ECE7012B05D101250C6865F3AE
:1008500049240C6004E001250C6865F308240C6051
:10086000951901F2100424682C70741C151901F2FA
:10087000100424682C70012B14D1494C22680D6897
:10088000C5F3402464B9464C246844B122B903201E
:100890003F4C2468A04705E1501E0246FFE7EEE703
:1008A000084613E03E4C22680D68C5F3002464B985
:1008B0003B4C246844B122B90320354C2468A0473E
:1008C000F0E0501E0246FFE7EEE708460025046808
:1008D00065F3CB240460E5E001250C6865F38A2408
:1008E0000C6001F210057C00A4B244F00104A4B233
:1008F0002C604646C846894617461D462A49484642
:10090000FFF792FC78B9264C24685CB1B8F1000F6F
:1009100004D103201E4C2468A047C3E0A8F10100C5
:100920008046FFE7EAE70021A8464A46B1463B4633
:10093000A9F10304A14222D2194C25688A46174620
:100940001E4618493846FFF76FFC60B9144C2468FE
:1009500044B125B903200E4C2468A047A2E0681ECC
:100960000546FFE7EDE706EB0A0507F210042468E9
:100970002C700AF10104214633463A46D8E7084C68
:1009800000F014B800540040FC0100205402002084
:1009900050020020005800400002002058020020B1
:1009A00004020020400003000200030027680193B6
:1009B0000B4616464246019906F214042568C5F313
:1009C000800464B9394C246844B127B90320384CF9
:1009D0002468A04766E0781E0746FFE7ECE700259D
:1009E000346865F38A243460CD1806F21004246854
:1009F0002C70581C2D4C23681746024606F214042E
:100A00002568C5F3800464B9284C246844B123B92F
:100A10000320274C2468A04744E0581E0346FFE704
:100A2000ECE7012F07D10125346865F349243460D0
:100A30001046324621E00125346865F3082434600D
:100A40001A4CD4F8008017460D461A493046FFF775
:100A5000EBFB78B9154C24685CB1B8F1000F04D1F8
:100A60000320134C2468A0471CE0A8F10100804635
:100A7000FFE7EAE72946324638460D1802F210042D
:100A800024682C70441C0D1902F2100424682C7088
:100A900008E0B8F1010F3FF407AEB8F1020F3FF4E0
:100AA00089AE19E7DDF800E002B0704704020020CB
:100AB000500200200100030081B0194900EA010141
:100AC000084600220EE0042022E0082020E010204A
:100AD0001EE020201CE040201AE0802018E040F2B8
:100AE000001015E00F498842EDD00F498842ECD044
:100AF0000E498842EBD00E498842EAD00D4988421F
:100B0000E9D00D498842E8D00C498842E7D0104628
:100B10000B49096841EA000209490A6001B07047BF
:100B200000FCFFFF00080140000C014000100140E4
:100B30000014014000180140001C01400020014049
:100B40001810024083B0CDF800E003464FF00000DB
:100B500026498B4206D126490C6826490A6826494F
:100B60000A600BE025498B4207D1254908682549D1
:100B70000A6821490A60044600E0044622490C60E4
:100B8000019402931846FFF761FB029B019C10B988
:100B90004FF6FF7025E00122196862F30821196001
:100BA00003F214010A68C2F3402111B14FF6FF703D
:100BB00017E025461C4615492046FFF735FB78B956
:100BC0001149096859B135B906200B4C2468A04772
:100BD0004FF6FF7005E0691E08460546FFE7EAE7A5
:100BE0000020DDF800E003B0704700BF0054004073
:100BF000FC01002054020020500200200058004058
:100C0000000200205802002004020020010003001E
:100C100081B0CDF800E00348FFF786FCDDF800E086
:100C200001B070470048004081B0ADF800100146A7
:100C3000BDF800000B68C3F3C01202B9FAE70A1D41
:100C4000106001B07047FFFF81B0CDF800E00348AD
:100C5000FFF798FBDDF800E001B070470048004066
:100C600081B0CDF800E00348FFF7ECFCDDF800E0D0
:100C700001B070470048004081B000F20C021160E2
:100C800000F208021368C3F3000202B9F8E700F2A9
:100C90000C02126890B201B07047FFFF81B0CDF82E
:100CA00000E00348FFF76EFBDDF800E001B070479D
:100CB0000044004081B0CDF800E00348FFF734FC69
:100CC000DDF800E001B070470044004081B0CDF88D
:100CD00000E00348FFF7B6FCDDF800E001B0704724
:100CE0000050004081B0CDF800E00348FFF74AFB18
:100CF000DDF800E001B070470050004081B0CDF851
:100D000000E00348FFF710FCDDF800E001B0704799
:100D10000050004081B0CDF800E008B413460A4608
:100D2000C1B20448FFF734FB01B0DDF800E001B0C8
:100D3000704700BF0054004081B0CDF800E0034888
:100D4000FFF780FCDDF800E001B07047004C004088
:100D500081B0CDF800E00348FFF7E6FBDDF800E0E6
:100D600001B07047004C004081B0CDF800E003486E
:100D7000FFF708FBDDF800E001B07047004C0040D1
:100D800081B0CDF800E008B413460A46C1B2044869
:100D9000FFF7FEFA01B0DDF800E001B0704700BFD8
:100DA0000058004081B0CDF800E008B413460A4670
:100DB000C1B20448FFF752FC01B0DDF800E001B019
:100DC000704700BF0054004081B0CDF800E00348F8
:100DD000FFF7B8FEDDF800E001B0704700580040B2
:100DE00081B0CDF800E00348FFF72CFCDDF800E00F
:100DF00001B070470038014081B0CDF800E081B209
:100E00000348FFF739FFDDF800E001B0704700BF8D
:100E10000030014081B0CDF800E008B413460A4626
:100E2000C1B20448FFF71AFC01B0DDF800E001B0E0
:100E3000704700BF0058004088B0CDF800E00E4673
:100E4000554B98420DD1012464B2544B1C60544C54
:100E5000544B1C60544C554B1C60554C554B1C60FE
:100E60000FE0554B98420CD1012464B2534B1C60E7
:100E7000534C4C4B1C60534C4C4B1C60524C4D4BD8
:100E80001C60019602901046FFF754FB0298019EE9
:100E9000031D1B689CB26FF03F0304EA03039DB27D
:100EA00003AB01901846FFF719FA0198059F059CBE
:100EB000464BB4FBF3F399B29BB245EA0304A4B2E8
:100EC000031D1C600024036864F300030360002218
:100ED0003F4B9E4212D87300B7FBF3F4A4B2042C2C
:100EE00002D204231C46FFE742EA04039AB200F24E
:100EF00020044B1C9BB2236091B23FE0032306FB0E
:100F000003F4B7FBF4F31FFA83F8192306FB03F588
:100F1000B7FBF5F31FFA83F908FB04F409FB05F3AB
:100F20003C1BFB1A9C4205D203237343B7FBF3F42B
:100F3000A4B206E019237343B7FBF3F4A4B244F45C
:100F4000804440F6FF7304EA030313B944F001043C
:100F5000FFE744F400439BB21A4392B200F220052B
:100F600040F22C1301FB03F4A4B240F2E833B4FBCB
:100F7000F3F39BB25B1C9BB22B6091B200F21C039B
:100F80001960002303600124036864F30003036015
:100F9000DDF800E008B0704700540040D40342423E
:100FA000FD1100005C020020A50D00006002002081
:100FB000150D00006402002000580040D803424292
:100FC000C90D0000150E0000810D000040420F0009
:100FD000A086010081B0CDF800E08CB21546774BB9
:100FE00000EA03031E461846FFF766FDB4F1FF0F43
:100FF0000CD1734B9D4203D14FF033333360D9E0B2
:10100000422D03D14FF044333360D3E04FF6FF73EA
:101010009C4214D16A4B9D4207D14FF03333336069
:10102000341D4FF033332360C4E0422D07D14FF01D
:1010300044333360341D4FF044332360BAE0002161
:10104000002005F001030BB100211DE005F00203B3
:1010500033B105F4C0730BB1082100E0042113E0A3
:1010600005F0040333B105F020030BB1042100E0C7
:10107000002109E005F0080333B105F020030BB1AE
:101080000C2100E00821FFE74E4B05EA03030BB1FA
:10109000032009E005F400730BB1022004E005F41D
:1010A00080630BB10120FFE705F00C030BB1014396
:1010B000FFE704F0FF039BB2002B3BD03768002012
:1010C0001FFA84F832462E4608282CD24FF001032E
:1010D00003FA00F408EA0403A34222D185004FF08A
:1010E0000F03AB40DB4307EA030401FA05F344EACC
:1010F00003031D4606F48173B3F5817F05D102F227
:1011000014044FF001038340236006F08203822B16
:1011100005D102F210044FF00103834023602F46F3
:10112000FFE7401CD0E717601FFA88F00F463146F2
:10113000164602E00F462946A0B2B0F1FF0F39D99A
:10114000331DD3F800800022082A30D202F20804AE
:101150004FF0010303FA04F400EA0403A34224D18C
:1011600095004FF00F03AB40DB4308EA030807FA92
:1011700005F348EA030801F48173B3F5817F07D1D1
:1011800006F2140502F208044FF00103A3402B609D
:1011900001F08203822B07D106F2100502F2080447
:1011A0004FF00103A3402B60FFE7521CCCE7331D37
:1011B000C3F80080DDF800E001B0704700FCFFFFDD
:1011C000140008000008080081B0CDF800E081B2EA
:1011D0000348FFF751FDDDF800E001B0704700BFA4
:1011E0000038004081B0CDF800E00348FFF7CAF8AE
:1011F000DDF800E001B070470038014081B0CDF863
:1012000000E00348FFF79EFCDDF800E001B0704706
:101210000054004081B0CDF800E00348FFF712FA17
:10122000DDF800E001B070470044004089B0CDF81F
:1012300000E0834698B28C46BDF824100A9E04ACA8
:10124000ADF80410ADF808002046FFF747F8BDF8E8
:101250000800BDF80410644CA34512D101256DB2FD
:10126000624C2560624D634C2560634D634C256084
:10127000634D644C2560644D644C2560079C039469
:1012800056E0634CA34512D101256DB2614C256037
:10129000614D584C2560614D584C2560604D594C4E
:1012A0002560604D594C2560069C039440E05E4CDF
:1012B000A34512D101256DB25C4C25605C4D4D4CAF
:1012C00025605C4D4D4C25605B4D4E4C25605B4D63
:1012D0004E4C2560069C03942AE0594CA34512D13C
:1012E00001256DB2574C2560574D424C2560574D36
:1012F000424C2560564D434C2560564D434C25606D
:10130000069C039414E0544CA34511D101256DB201
:10131000524C2560524D374C2560524D374C25605C
:10132000514D384C2560514D384C2560069C039436
:10133000ADF80410ADF808003046FFF7FBF8BDF833
:101340000800BDF804100BF1100500242C600BF10F
:1013500010052C680C432C600BF10C0500242C604C
:1013600018B140F4806080B2FFE70BF10C052C68E7
:1013700004432C600BF10C060125346865F34D34F1
:1013800034600BF10C060125346865F3C304346046
:101390000BF10C060125346865F3820434600BF10F
:1013A000140500242C60039D192465434FEA8C0426
:1013B000B5FBF4F76424B7FBF4F426013509642483
:1013C0006C433C1B240104F232056424B5FBF4F4A5
:1013D00004F00F0446EA04040BF10805A4B22C60E3
:1013E000DDF800E009B070470038014038034242A0
:1013F0009916000068020020E10D00006C02002038
:101400007114000070020020E51100007402002039
:1014100000440040C40342427D1600001512000043
:10142000B50C00009D0C000000480040C80342427B
:1014300061160000610C0000110C0000490C000056
:10144000004C0040CC034242F9160000390D000068
:10145000510D0000690D000000500040D0034242D1
:10146000DD160000CD0C0000FD0C0000E50C0000B6
:1014700081B0CDF800E00348FFF756F8DDF800E052
:1014800001B070470038014081B0CDF800E081B272
:101490000348FFF7F1FBDDF800E001B0704700BF43
:1014A000003C004082B0CDF800E040F20004ADF80E
:1014B0000440064C2468A047BDF9041041EA00002E
:1014C00000B2DDF800E002B0704700BF78020020F3
:1014D00081B0CDF800E0019D2C4610B408B493B261
:1014E0008AB201460348FFF7A1FE02B0DDF800E032
:1014F00001B070470048004082B0CDF800E040F2F3
:101500000004ADF80440044C2468A047BDF9040071
:10151000DDF800E002B070479002002081B0CDF805
:1015200000E0019D2C4610B408B493B28AB2014683
:101530000348FFF77BFE02B0DDF800E001B0704722
:101540000038014081B0CDF800E0019D2C4610B478
:1015500008B493B28AB201460348FFF767FE02B0AF
:10156000DDF800E001B070470044004081B0CDF8E4
:1015700000E00A4601460348FFF75EFCDDF800E0A4
:1015800001B070470054004081B0CDF800E04FF04A
:10159000420289B2FFF71EFDDDF800E001B070479E
:1015A00084B0CDF800E0ADF80C2001900291BDF8B8
:1015B0000C40BDF80C305B1EADF80C307CB1019BCB
:1015C0001B78DCB2A0B2084C2468A047029B1870BC
:1015D000029B5B1C0293019B5B1C0193E7E7DDF818
:1015E00000E004B0704700BF9C020020A08601000C
:1015F00040F20B07C0F200077F1EFDD100BF00BF05
:1016000000BF00BF00BF704781B0CDF800E0044AC2
:1016100089B2FFF7DFFCDDF800E001B0704700BFE2
:101620001400080083B0CDF800E08AB2014690B201
:1016300083B2421E90B26BB10A78D4B2ADF8040006
:101640000291A0B2054C2468A0470299BDF804009D
:10165000491CEDE7DDF800E003B070479802002078
:1016600081B0CDF800E081B20348FFF7DDFADDF884
:1016700000E001B0704700BF0048004081B0CDF8E5
:1016800000E081B20348FFF7CFFADDF800E001B0D7
:10169000704700BF0044004081B0CDF800E081B247
:1016A0000348FFF7C1FADDF800E001B0704700BF62
:1016B0000038014082B0CDF800E040F20004ADF8FF
:1016C0000440054C2468A047BDF90440044320B2FF
:1016D000DDF800E002B070478C02002081B0CDF848
:1016E00000E081B20348FFF79FFADDF800E001B0A7
:1016F000704700BF0050004081B0CDF800E081B2DB
:101700000348FFF791FADDF800E001B0704700BF31
:10171000004C004081B0CDF800E081B20348FFF7F3
:10172000ABFADDF800E001B0704700BF00380040C0
:1017300081B0CDF800E081B20348FFF79DFADDF8F3
:1017400000E001B0704700BF003C004081B0CDF820
:1017500000E081B20348FFF78FFADDF800E001B046
:10176000704700BF0030014081B00A4681B20020BE
:101770008DB21146052805D20B1820221A70401C84
:10178000C0B2F7E70B1800221A70401EC0B20C1846
:101790000A23B5FBF3F203FB125292B230322270ED
:1017A0000A22B5FBF2F292B295B202B902E0401EF3
:1017B000C0B2ECE701B0704782B0CDF800E001AAFA
:1017C0001070521C1170104A12785AB9FFF76AFE55
:1017D00001AB0E4A127819460123D0B20222FFF75C
:1017E00069FF0CE000200A4C2468A04701AA0221EE
:1017F0001046FFF717FF0120054C2468A047DDF8CD
:1018000000E002B0704700BF4702002094020020B1
:101810008802002082B0CDF800E001A908701D49BF
:101820000978C9B9FFF73EFE01AA1B4909780023D0
:10183000C8B211460122FFF73DFF0DF1060216491D
:1018400009780123C8B211460122FFF755FE0DF1B8
:1018500006010978C8B218E001AA40F080011170B1
:1018600000200E4C2468A0470DF1060201A908468D
:1018700011460222FFF794FE0120084C2468A0477D
:101880000DF10601491C0978C8B2DDF800E002B08C
:10189000704700BF47020020940200208802002009
:1018A00083B0CDF800E001A9087024490978F9B99E
:1018B000FFF7F8FD01AA224909780023C8B21146B2
:1018C0000122FFF7F7FE0DF107021D4909780123F8
:1018D000C8B211460222FFF70FFE0DF10703591C93
:1018E0000878C0B2000280B21978084380B220E0C4
:1018F00001AA40F0800111700020124C2468A0471A
:10190000FFF776FE0DF1070201A9084611460322F2
:10191000FFF746FE01200B4C2468A0470DF107039A
:10192000991C0878C0B2000280B2591C097808439B
:1019300080B2DDF800E003B0704700BF470200202E
:10194000940200208802002081B0CDF800E06428D5
:1019500028D166214320FFF72FFF2C214420FFF7D9
:101960002BFF17214520FFF727FF1F214620FFF7F8
:1019700023FF24214720FFF71FFF13214820FFF7F3
:101980001BFF0B214920FFF717FF08214A20FFF713
:1019900013FF19214B20FFF70FFF1C214C20FFF7ED
:1019A0000BFF27E056214320FFF706FF26214420A6
:1019B000FFF702FF17214520FFF7FEFE1F214620FB
:1019C000FFF7FAFE0E214720FFF7F6FE0B21482015
:1019D000FFF7F2FE02214920FFF7EEFE03214A2025
:1019E000FFF7EAFE0D214B20FFF7E6FE10214C2009
:1019F000FFF7E2FEDDF800E001B0704782B0CDF8FD
:101A000000E0010AADF80400C9B24120FFF7D4FE9E
:101A1000BDF8040000F0FF01C9B24220FFF7CCFE80
:101A2000DDF800E002B0704701490860704700BF70
:101A3000B481224201490860704700BFA8012242D8
:101A400001490860704700BF9001214201490860C8
:101A5000704700BF8801224201490860704700BFFB
:101A6000AC01224201490860704700BFA8812242B0
:101A700001490860704700BFA48122420149086003
:101A8000704700BFB001224201490860704700BFA3
:101A90008001214281B0CDF800E001680846044988
:101AA000FFF764FD0020DDF800E001B0704700BFE3
:101AB000B02C000081B0CDF800E001680846044970
:101AC000FFF754FD0020DDF800E001B0704700BFD3
:101AD000B02C000081B0CDF800E0A9E0012905D1CB
:101AE00040F210016548FFF74FFD04E040F210019D
:101AF0006248FFF789FDBBE0012905D140F20401EE
:101B00005F48FFF741FD04E040F204015C48FFF745
:101B10007BFDADE0012905D142F200015948FFF7F4
:101B200033FD04E042F200015648FFF76DFD9FE0EF
:101B3000012905D140F200415148FFF725FD04E09D
:101B400040F200414E48FFF75FFD91E0012905D1C9
:101B500040F600014A48FFF717FD04E040F6000197
:101B60004748FFF751FD83E0012905D141F200010B
:101B70004348FFF709FD04E041F200014048FFF748
:101B800043FD75E0012905D140F201013B48FFF713
:101B9000FBFC04E040F201013848FFF735FD67E047
:101BA000012905D140F200413648FFF7EDFC04E081
:101BB00040F200413348FFF727FD59E0012905D1E4
:101BC00040F200212F48FFF7DFFC04E040F2002143
:101BD0002C48FFF719FD4BE0012905D140F2001117
:101BE0002848FFF7D1FC04E040F200112548FFF738
:101BF0000BFD3DE0012905D140F240012248FFF7ED
:101C0000C3FC04E040F240011F48FFF7FDFC2FE059
:101C1000012905D140F280011B48FFF7B5FC04E023
:101C200040F280011848FFF7EFFC21E0012020E09E
:101C300000283FF453AF01283FF45EAF02283FF481
:101C400069AF03283FF474AF04283FF47FAF052841
:101C50003FF48AAF06283FF495AF0728A0D00828A4
:101C6000ACD00928B8D00A28C4D00B28D0D0DDE7E2
:101C70000020DDF800E001B0704700BF000801401F
:101C80000010014000140140000C014081B0CDF86B
:101C900000E0A9E0012905D140F220016548FFF7E5
:101CA00073FC04E040F220016248FFF7ADFCBBE0AA
:101CB000012905D140F208015F48FFF765FC04E007
:101CC00040F208015C48FFF79FFCADE0012905D117
:101CD00044F200015948FFF757FC04E044F20001C8
:101CE0005648FFF791FC9FE0012905D140F20041E1
:101CF0005148FFF749FC04E040F200414E48FFF72D
:101D000083FC91E0012905D140F600014A48FFF724
:101D10003BFC04E040F600014748FFF775FC83E018
:101D2000012905D141F200014348FFF72DFC04E0F1
:101D300041F200014048FFF767FC75E0012905D139
:101D400041F200013D48FFF71FFC04E041F20001B1
:101D50003A48FFF759FC67E0012905D140F6000138
:101D60003648FFF711FC04E040F600013348FFF766
:101D70004BFC59E0012905D140F240012F48FFF703
:101D800003FC04E040F240012C48FFF73DFC4BE02F
:101D9000012905D140F220012848FFF7F5FB04E0B6
:101DA00040F220012548FFF72FFC3DE0012905D135
:101DB00040F240012248FFF7E7FB04E040F2400117
:101DC0001F48FFF721FC2FE0012905D140F28001D7
:101DD0001B48FFF7D9FB04E040F280011848FFF7E9
:101DE00013FC21E0012020E000283FF453AF01283C
:101DF0003FF45EAF02283FF469AF03283FF474AFAD
:101E000004283FF47FAF05283FF48AAF06283FF44B
:101E100095AF0728A0D00828ACD00928B8D00A2848
:101E2000C4D00B28D0D0DDE70020DDF800E001B001
:101E3000704700BF0008014000100140001401403D
:101E4000000C014081B0CDF800E0094902B440F235
:101E5000000340F2000240F20001FFF739FB01B03D
:101E6000044A05490A600020DDF800E001B070472F
:101E7000442C0000611600004802002081B0CDF81B
:101E800000E0094902B440F2000340F2000240F2CF
:101E90000001FFF757FB01B0044A05490A60002022
:101EA000DDF800E001B07047D82B00007D1600007F
:101EB0004802002081B0CDF800E00178CCB2A0B299
:101EC000034C2468A0470020DDF800E001B0704713
:101ED0004802002081B0CDF800E0094902B440F288
:101EE000000340F2000240F20001FFF72BFB01B0BB
:101EF000044A05490A600020DDF800E001B070479F
:101F0000D82B00007D1600004802002081B0CDF8DB
:101F100000E0094902B440F2000340F2000240F23E
:101F20000001FFF7FBFA01B0044A05490A600020EE
:101F3000DDF800E001B070476C2B0000991600003E
:101F40004802002001490860704700BF9881224282
:101F500001490860704700BF94812242014908602E
:101F6000704700BFB081224201490860704700BF3E
:101F7000B0812242026806490A60011D0A680549CB
:101F80000A6000F208010A6803490A60704700BF4E
:101F9000780200208C0200209002002000F2300322
:101FA0001A6808490A60191D0A6807490A6003F29D
:101FB0001C010A6805490A6000F208010A68044920
:101FC0000A6070477C02002080020020840200200A
:101FD0008802002001490860704700BF98812142B3
:101FE00001490860704700BF9C8121420149086097
:101FF000704700BFB001224201490860704700BF2E
:102000009401214201490860704700BF8C012242BF
:1020100001490860704700BF9C8121420149086066
:10202000704700BFA081224201490860704700BF8D
:102030009881214201490860704700BFB88122425F
:1020400001490860704700BFAC01224201490860A5
:10205000704700BFA801224281B0CDF800E00546DC
:10206000094B1A700024094B1C700846FFF782FFC9
:102070002846FFF793FF0120054C2468A047DDF8B0
:1020800000E001B0704700BF94020020470200202A
:102090008802002081B0CDF800E08B4609E0584668
:1020A000FFF7F8FC0AE05846FFF704FD06E00120C0
:1020B00004E00028F3D00128F5D0F8E7DDF800E0CF
:1020C00001B0704781B0CDF800E010211A20FFF771
:1020D00073FB3F211B20FFF76FFB98211C20FFF7AC
:1020E0006BFB88211D20FFF767FB00211E20FFF7F7
:1020F00063FB02211F20FFF75FFB42F21070FFF726
:102100007DFC2C214420FFF757FB7B213720FFF774
:1021100053FB61212620FFF74FFB20212020FFF7F2
:102120004BFB20212420FFF747FB6420FFF70CFC2A
:10213000DDF800E001B0704781B0CDF800E00E4658
:10214000002183B2002805DA0121404280B280B22A
:102150008FB201E098B28FB23146FFF705FB06213E
:102160003446B8B2002908D963184A1E92B2A218A0
:1021700012781A70491E89B2F4E72022227070B1D9
:10218000002081B2204642181278202A02D1491C30
:1021900089B2F8E74A1E92B283182D221A70DDF830
:1021A00000E001B07047FFFF84B0CDF800E001907F
:1021B000029103920220FFF773FB019B1880042019
:1021C000FFF76EFB029B18800620FFF769FB039B5D
:1021D0001880DDF800E004B07047FFFF81B0CDF853
:1021E00000E05FFA81F95FFA82FA0FE05FFA8AF1A4
:1021F0005FFA89F0FFF76EFC0DE05FFA8AF15FFA93
:1022000089F0FFF743FD06E0012004E00028EDD04F
:102210000128F2D0F8E7DDF800E001B07047FFFFD9
:1022200084B0CDF800E00190029103920820FFF7FE
:1022300037FB019B18800A20FFF732FB029B1880B6
:102240000C20FFF72DFB039B1880DDF800E004B0A5
:102250007047FFFF84B0CDF800E00B4601460193C4
:1022600002911320FFF7D6FA0299019BC4B28DF8B0
:102270000440029303911220FFF7CCFA0399029BCA
:102280009DF80440C5B200F02002D2B212B1012282
:102290000A7021E005F01002D2B212B102220A70D7
:1022A0001AE005F00802D2B212B103220A7013E05C
:1022B00005F00402D2B212B104220A700CE005F05B
:1022C0000202D2B212B105220A7005E005F0010245
:1022D000D2B20AB106220A7004F02002D2B212B1C0
:1022E00001221A7021E004F01002D2B212B10222CF
:1022F0001A701AE004F00802D2B212B103221A7066
:1023000013E004F00402D2B212B104221A700CE0FD
:1023100004F00202D2B212B105221A7005E004F0F4
:102320000102D2B20AB106221A70DDF800E004B050
:10233000704702040608FFFF41F6FF27C0F2B70707
:102340007F1EFDD100BF00BF00BF00BF00BF7047B0
:1023500081B0CDF800E00E20FFF7A2FADDF800E032
:1023600001B0704781B0CDF800E011E00846FFF7FA
:1023700069FD16E00846FFF7ADFD12E00846FFF7DD
:10238000C5FD0EE00846FFF779FD0AE0012008E0F0
:102390000028EBD00128EDD02028EFD03028F1D054
:1023A000F4E7DDF800E001B07047FFFF83B0CDF83F
:1023B00000E0024610460D228DF808200A228DF812
:1023C00009201FE0FFF776FD23E002782AB1019093
:1023D000FFF770FD0198401CF7E71AE002782AB178
:1023E0000190FFF767FD0198401CF7E702AA10462D
:1023F000FFF760FD0DF109021046FFF75BFD08E0F5
:10240000062007E00029DDD00129DED00229E5D031
:10241000F6E70020DDF800E003B0704781B0154812
:10242000006840F00101134801601349134801603E
:1024300010480168124801400E4801600D480168CB
:102440006FF4802001400B4801600C4801686FF474
:10245000FE00014009480160064801686FF0A05085
:102460000140044801604FF000010648016001B0DE
:10247000704700BF001002400000FFF0041002404F
:10248000FFFFF6FE2C10024081B01CF8019B0BF8F8
:10249000019BBBEB0A0FF8D101B07047FFFFFFFFB4
:1024A00081B0CDF800E0714A71497248FFF7B8FE7B
:1024B000714A72497248FFF777FEFFF749FF714A88
:1024C00011880818108070480221FFF76FFF6F48CD
:1024D0000221FFF76BFF6E480121FFF767FF654898
:1024E000B0F900006B49FFF727FE01216948FFF7AB
:1024F0005DFF69480121FFF759FF5D48B0F9000011
:102500006449FFF719FE01216248FFF74FFF634856
:102510000121FFF74BFF5548B0F900005D49FFF777
:102520000BFE01215B48FFF741FF5D480221FFF7E9
:102530003DFF5C480121FFF739FF5148B0F9000029
:102540005449FFF7F9FD01215248FFF72FFF564884
:102550000121FFF72BFF4948B0F900004D49FFF773
:10256000EBFD01214B48FFF721FF50480121FFF708
:102570001DFF4148B0F900004649FFF7DDFD01218C
:102580004448FFF713FF4A480221FFF70FFF49486D
:102590000221FFF70BFF48480121FFF707FF3948E9
:1025A00000883C49FFF7C8FD01213A48FFF7FEFECD
:1025B00042480221FFF7FAFE41480221FFF7F6FEEA
:1025C00040494148FFF746FE40480121FFF7EEFE33
:1025D0001DE03F480221FFF7E9FE30E03D480221BF
:1025E000FFF7E4FE2BE03C480221FFF7DFFE26E088
:1025F0003A480221FFF7DAFE21E039480221FFF7CD
:10260000D5FE1CE037480221FFF7D0FE17E02E4828
:1026100000780128DDD02C4800780228DED02A4836
:1026200000780328DFD0284800780428E0D0264826
:1026300000780528E1D0244800780628E2D02A480E
:102640000221FFF7B3FE29480221FFF7AFFE43F650
:10265000FF57C0F2490700BF00BF7F1EFDD100BF7A
:1026600000BF00BFDDF800E001B070470A020020A3
:1026700008020020FA010020100200200E020020B3
:102680000C0200201202002016000020440000204E
:1026900072000020140200207F000020850000202E
:1026A0008B000020910000209E000020A40000204C
:1026B000AA000020B0000020DE000020F900002069
:1026C0000701002046020020F9010020350100200A
:1026D0005001002064010020780100208C010020BE
:1026E000A0010020B4010020C8010020F601002054
:1026F00081B0CDF800E01F2210491148FFF7ACFC73
:10270000FFF7E0FC802040F04000C0B240F0000045
:10271000C0B240F00000C0B240F00400C0B240F0CF
:102720000200C0B240F00100C1B21A20FFF744F825
:10273000FFF702FEDDF800E001B07047982D0000C1
:102740001C2D000081B04FF000094FF0000CBDEBD4
:102750000A0F04DCBDEB0B0F01DBD446EA464BF855
:10276000049BBBEB0A0FFAD1BCEB0A0F05DDE24676
:10277000D9F800B00BF1040BF1E701B07047FFFF8F
:1027800081B0CDF800E0012207210020FFF726FDEF
:10279000012200210020FFF721FD0122012100205C
:1027A000FFF71CFD002202210020FFF717FD0E4855
:1027B00001460020FFF76EFC4FF4E1312020FFF7C7
:1027C000D1FD0A480221FFF7F1FD44F67F77C0F200
:1027D00012077F1EFDD100BF00BF00BF00BF00BFBA
:1027E000DDF800E001B07047EC15000000000020AB
:1027F00081B002490248016001B0704740190100F0
:102800004C02002081B0FEE701B0704700F00EF8E6
:1028100000F016FBFFF7ECFF00F0C4FAFFF7B0FF83
:10282000FFF766FFFFF73CFEFCE7FEE781B0CDF85F
:1028300000E0464A464B474C47494BF680308142C0
:1028400006D94648006840F002014448016011E0A2
:1028500045F6C050814206D94048006840F0010169
:102860003E48016006E03D4801686FF00700014006
:102870003A480160FFF7D2FD3948036039480460E7
:10288000394802EA00013948016002F0010040B114
:1028900019463648006800F00200002800D1F8E729
:1028A00000E0194602F4803040B10B462F48006822
:1028B00000F40030002800D1F8E700E00B4602F0F9
:1028C000805068B12948006840F080512748016075
:1028D0002648006800F00050002800D1F8E7FFE724
:1028E00002F0806078B12148006840F080611F48A4
:1028F000016011461A461D48006800F0006000287B
:1029000000D1F8E701E011461A4601F0807070B17D
:102910001648006840F08071144801601146134861
:10292000006800F0007000B9F9E70A46FFE70C48BC
:10293000006800F00C01900000F00C00814200D013
:10294000F5E7DDF800E001B0704700BF8100010548
:1029500002841D00440601004019010000200240CD
:10296000041002402C100240FFFF0F000010024034
:10297000202D2D2D2053797374656D20496E697457
:10298000202D2D2D20007C5F5F5F5F5F5F5F5F5FAD
:102990005F5F205065646F6D6574657220332063DE
:1029A0006C69636B205F5F5F5F5F5F5F5F5F5F5F4F
:1029B0005F5F7C007C202044617461202020207CAB
:1029C000202058206178697320207C2020592061C4
:1029D00078697320207C20205A2061786973202038
:1029E0007C007C2020416363656C2020207C0020DB
:1029F0002020207C00202020207C00202020207C03
:102A0000007C20485020416363656C207C002020BE
:102A100020207C00202020207C00202020207C0002
:102A20007C5F5F5F5F5F5F5F5F5F5F5F5F5F5F5F99
:102A30005F5F5F5F5F5F5F5F5F5F5F5F5F5F5F5FA6
:102A40005F5F5F5F5F5F5F5F5F5F5F5F7C007C20FA
:102A50005065646F6D657465722073746570206372
:102A60006F756E746572203A00202020202020208F
:102A700020202020207C007C5F5F5F5F5F5F5F5FC6
:102A80005F5F5F5F5F5F5F5F5F5F5F5F5F5F5F5F56
:102A90005F5F5F5F5F5F5F5F5F5F5F5F5F5F5F5F46
:102AA0005F5F5F7C007C2043757272656E7420549A
:102AB000696C7420506F736974696F6E20203A00DE
:102AC0002D204C454654202020202020202020204E
:102AD00020207C002D2052494748542020202020CF
:102AE0002020202020207C002D20444F574E2020E5
:102AF000202020202020202020207C002D20555028
:102B000020202020202020202020202020207C0089
:102B10002D204641434520444F574E202020202061
:102B200020207C002D204641434520555020202068
:102B30002020202020207C007C5F5F5F5F5F5F5F44
:102B40005F5F5F5F5F5F5F5F5F5F5F5F5F5F5F5F95
:102B50005F5F5F5F5F5F5F5F5F5F5F5F5F5F5F5F85
:102B60005F5F5F5F7C00202000FFFFFF0900000027
:102B70000A000000FFFFFFFF00000000000000004F
:102B80000000000000000000000000000000000045
:102B90000000000000000000000000000000000035
:102BA00018080000180000000000000000000000ED
:102BB0000000000000000000000000000000000015
:102BC0000000000000000000000000000000000005
:102BD0000000000004000000350000003600000086
:102BE000FFFFFFFF000000000000000000000000E9
:102BF00000000000000000000000000000000000D5
:102C000000000000000000000000000018080000A4
:102C1000180000000000000000000000000000009C
:102C200000000000000000000000000000000000A4
:102C30000000000000000000000000000000000094
:102C4000080000083800000039000000FFFFFFFF07
:102C50000000000000000000000000000000000074
:102C60000000000000000000000000000000000064
:102C7000000000000000000018080000180000001C
:102C80000000000000000000000000000000000044
:102C90000000000000000000000000000000000034
:102CA00000000000000000000000000030001408D8
:102CB0001600000017000000FFFFFFFF00000000EB
:102CC0000000000000000000000000000000000004
:102CD00000000000000000000000000000000000F4
:102CE0000000000028080000280800000000000084
:102CF00000000000000000000000000000000000D4
:102D000000000000000000000000000000000000C3
:102D1000000000000000000002000000411A000056
:102D20004D1A0000291A0000351A0000591A000037
:102D30007D1A0000891A0000651A0000711A00004F
:102D40001D2000002920000011200000FFFFFFFFD0
:102D5000FFFFFFFFFFFFFFFFFFFFFFFFFFFFFFFF83
:102D6000FFFFFFFFFFFFFFFFFFFFFFFFFFFFFFFF73
:102D7000FFFFFFFFFFFFFFFFFFFFFFFF000000005F
:102D80000102030401020304060708090000000011
:102D90000000000000000000FD110000150D000003
:102DA000A50D000000B5DFF824B0DFF824A0DFF89F
:102DB00024C0FFF769FBDFF820B0DFF820A0DFF8C0
:102DC00020C0FFF761FB00BD704700BF000000207E
:102DD000F901002070290000FC01002008020020F9
:102DE0008C2D0000FFFFFFFFFFFFFFFFFFFFFFFF36
:102DF000FFFFFFFFFFFFFFFFFFFFFFFFFFFFFFFFE3
:102E0000FFFFFFFFFFFFFFFFFFFFFFFFFFFFFFFFD2
:102E1000FFFFFFFFFFFFFFFFFFFFFFFFFFFFFFFFC2
:102E2000FFFFFFFFFFFFFFFFFFFFFFFFFFFFFFFFB2
:102E3000FFFFFFFFFFFFFFFFFFFFFFFFFFFFFFFFA2
:102E400000B5DFF810B0DFF810A0FFF77BFC00BD85
:102E5000704700BF00000020A0020020FFFFFFFF1E
:00000001FF
